{
  "abi": [
    {
      "type": "constructor",
      "inputs": [
        {
          "name": "_depth",
          "type": "uint32",
          "internalType": "uint32"
        },
        {
          "name": "_hasher",
          "type": "address",
          "internalType": "contract Poseidon2"
        },
        {
          "name": "_verifier",
          "type": "address",
          "internalType": "contract IVerifier"
        }
      ],
      "stateMutability": "nonpayable"
    },
    {
      "type": "function",
      "name": "DENOMINATION",
      "inputs": [],
      "outputs": [
        {
          "name": "",
          "type": "uint256",
          "internalType": "uint256"
        }
      ],
      "stateMutability": "view"
    },
    {
      "type": "function",
      "name": "ROOT_HISTORY_SIZE",
      "inputs": [],
      "outputs": [
        {
          "name": "",
          "type": "uint32",
          "internalType": "uint32"
        }
      ],
      "stateMutability": "view"
    },
    {
      "type": "function",
      "name": "deposit",
      "inputs": [
        {
          "name": "_commitment",
          "type": "bytes32",
          "internalType": "bytes32"
        }
      ],
      "outputs": [],
      "stateMutability": "payable"
    },
    {
      "type": "function",
      "name": "i_depth",
      "inputs": [],
      "outputs": [
        {
          "name": "",
          "type": "uint32",
          "internalType": "uint32"
        }
      ],
      "stateMutability": "view"
    },
    {
      "type": "function",
      "name": "i_hasher",
      "inputs": [],
      "outputs": [
        {
          "name": "",
          "type": "address",
          "internalType": "contract Poseidon2"
        }
      ],
      "stateMutability": "view"
    },
    {
      "type": "function",
      "name": "i_verifier",
      "inputs": [],
      "outputs": [
        {
          "name": "",
          "type": "address",
          "internalType": "contract IVerifier"
        }
      ],
      "stateMutability": "view"
    },
    {
      "type": "function",
      "name": "s_cachedSubtree",
      "inputs": [
        {
          "name": "depth",
          "type": "uint256",
          "internalType": "uint256"
        }
      ],
      "outputs": [
        {
          "name": "subtreeHash",
          "type": "bytes32",
          "internalType": "bytes32"
        }
      ],
      "stateMutability": "view"
    },
    {
      "type": "function",
      "name": "s_commitments",
      "inputs": [
        {
          "name": "commitment",
          "type": "bytes32",
          "internalType": "bytes32"
        }
      ],
      "outputs": [
        {
          "name": "isUsed",
          "type": "bool",
          "internalType": "bool"
        }
      ],
      "stateMutability": "view"
    },
    {
      "type": "function",
      "name": "s_currentRootIndex",
      "inputs": [],
      "outputs": [
        {
          "name": "",
          "type": "uint32",
          "internalType": "uint32"
        }
      ],
      "stateMutability": "view"
    },
    {
      "type": "function",
      "name": "s_nextLeafIndex",
      "inputs": [],
      "outputs": [
        {
          "name": "",
          "type": "uint32",
          "internalType": "uint32"
        }
      ],
      "stateMutability": "view"
    },
    {
      "type": "function",
      "name": "s_nullifierHashes",
      "inputs": [
        {
          "name": "nullifier",
          "type": "bytes32",
          "internalType": "bytes32"
        }
      ],
      "outputs": [
        {
          "name": "isUsed",
          "type": "bool",
          "internalType": "bool"
        }
      ],
      "stateMutability": "view"
    },
    {
      "type": "function",
      "name": "s_roots",
      "inputs": [
        {
          "name": "_index",
          "type": "uint256",
          "internalType": "uint256"
        }
      ],
      "outputs": [
        {
          "name": "rootHash",
          "type": "bytes32",
          "internalType": "bytes32"
        }
      ],
      "stateMutability": "view"
    },
    {
      "type": "function",
      "name": "withdraw",
      "inputs": [
        {
          "name": "_proof",
          "type": "bytes",
          "internalType": "bytes"
        },
        {
          "name": "_root",
          "type": "bytes32",
          "internalType": "bytes32"
        },
        {
          "name": "_nullifierHash",
          "type": "bytes32",
          "internalType": "bytes32"
        },
        {
          "name": "_recipient",
          "type": "address",
          "internalType": "address payable"
        }
      ],
      "outputs": [],
      "stateMutability": "nonpayable"
    },
    {
      "type": "function",
      "name": "zeros",
      "inputs": [
        {
          "name": "i",
          "type": "uint32",
          "internalType": "uint32"
        }
      ],
      "outputs": [
        {
          "name": "",
          "type": "bytes32",
          "internalType": "bytes32"
        }
      ],
      "stateMutability": "pure"
    },
    {
      "type": "event",
      "name": "Deposited",
      "inputs": [
        {
          "name": "_commitments",
          "type": "bytes32",
          "indexed": true,
          "internalType": "bytes32"
        },
        {
          "name": "nextIndex",
          "type": "uint32",
          "indexed": false,
          "internalType": "uint32"
        },
        {
          "name": "timestamp",
          "type": "uint256",
          "indexed": false,
          "internalType": "uint256"
        }
      ],
      "anonymous": false
    },
    {
      "type": "event",
      "name": "Withdrawl",
      "inputs": [
        {
          "name": "recipient",
          "type": "address",
          "indexed": true,
          "internalType": "address"
        },
        {
          "name": "_nullifierHash",
          "type": "bytes32",
          "indexed": false,
          "internalType": "bytes32"
        }
      ],
      "anonymous": false
    },
    {
      "type": "error",
      "name": "IncrementalMerkleTree__LevelOurOfBounds",
      "inputs": []
    },
    {
      "type": "error",
      "name": "IncrementalMerkleTree__MerkleTreeFull",
      "inputs": [
        {
          "name": "",
          "type": "uint256",
          "internalType": "uint256"
        }
      ]
    },
    {
      "type": "error",
      "name": "IncrementalMerkleTree__ShouldBeGreaterThanZero",
      "inputs": []
    },
    {
      "type": "error",
      "name": "IncrementalMerkleTree__ShouldBeLessThan32",
      "inputs": []
    },
    {
      "type": "error",
      "name": "Mixer__CommitmentAlreadyAdded",
      "inputs": [
        {
          "name": "",
          "type": "bytes32",
          "internalType": "bytes32"
        }
      ]
    },
    {
      "type": "error",
      "name": "Mixer__DepositAmountNotCorrect",
      "inputs": [
        {
          "name": "deposited",
          "type": "uint256",
          "internalType": "uint256"
        },
        {
          "name": "expectedAmount",
          "type": "uint256",
          "internalType": "uint256"
        }
      ]
    },
    {
      "type": "error",
      "name": "Mixer__InvalidProof",
      "inputs": []
    },
    {
      "type": "error",
      "name": "Mixer__NullifierAlreadyUsed",
      "inputs": [
        {
          "name": "_nullifierHash",
          "type": "bytes32",
          "internalType": "bytes32"
        }
      ]
    },
    {
      "type": "error",
      "name": "Mixer__UnknownRoot",
      "inputs": [
        {
          "name": "root",
          "type": "bytes32",
          "internalType": "bytes32"
        }
      ]
    },
    {
      "type": "error",
      "name": "Mixer__WithdrawFailed",
      "inputs": [
        {
          "name": "",
          "type": "address",
          "internalType": "address"
        },
        {
          "name": "",
          "type": "uint256",
          "internalType": "uint256"
        }
      ]
    },
    {
      "type": "error",
      "name": "ReentrancyGuardReentrantCall",
      "inputs": []
    }
  ],
  "bytecode": {
    "object": "0x60e060405234801561000f575f5ffd5b50604051611cf8380380611cf883398101604081905261002e916107b5565b82828163ffffffff165f0361005657604051630fed769960e21b815260040160405180910390fd5b60208263ffffffff161061007d5760405163737d5c7d60e01b815260040160405180910390fd5b63ffffffff82166080526001600160a01b03811660a05261009d826100e5565b5f8052600160208190527fa6eef7e35abe7026729641147f7915573c7e97b47efa546f5f6e3230263bcb499190915560035550506001600160a01b031660c052506108079050565b5f8163ffffffff165f0361011a57507f1f9c815bb3f29ba2fc3f19b72e48938aed2707689809bde3eccc309ba32fe917919050565b8163ffffffff1660010361014f57507f26826ad1a5d1795f583284d34418d3bac2b6b2515b16a2a432cf6aa3b6443ba9919050565b8163ffffffff1660020361018457507f0ed66b54d8bfb40fdba0c49e7636f8850388fcf57e53635e8f4f6be09ca832bf919050565b8163ffffffff166003036101b957507f136ec4fdcd944b309c96af02b3354288305d45c3924a380b7d740456a310c007919050565b8163ffffffff166004036101ee57507f05357e9c92cdcb2f8f3d6d0b559644dbdc71a64287bd05ced0ffaea1f288b0f8919050565b8163ffffffff1660050361022357507f0b05826301fec5aeaceacb22a23a4a98a425d1c06999b65178ddf31fdfca6f4f919050565b8163ffffffff1660060361025857507f032e018fb302306660b0232159cd85aaedf00603f01cc9ad3eaaf999e1eb24b4919050565b8163ffffffff1660070361028d57507f0a53ee2c5d3fd7df8e86812175d3edd683322886dcbc46c91aaf314f554e42f0919050565b8163ffffffff166008036102c257507f074307f10fc9aef3542720f00022e889a43df04f2d68b67fb617d5bd97c690bf919050565b8163ffffffff166009036102f757507f15e905d2b53b0b5b1ea7036712ab3ae8de48a8777a89210e721ce7df6476b82d919050565b8163ffffffff16600a0361032c57507f1faa8b22a213e896a362fe6792266534158a96e72df5c91a44d0a17edf426076919050565b8163ffffffff16600b0361036157507f21928b321d687fd22fc795f16320f2179fe0fe2618814cfec48503bb0876c2d3919050565b8163ffffffff16600c0361039657507f082656ecc9dcee31e3af4592a883b742bad86cf9479d03665ed4cd9b00bbc2fc919050565b8163ffffffff16600d036103cb57507f13107442c825ccf2e2a47d5ddbb774ef34ce723910b966811bc9a37e33606014919050565b8163ffffffff16600e0361040057507f1b9ed5a57b907fb0561a542285f3566fcc869e454095c21d347f792658258874919050565b8163ffffffff16600f0361043557507f2b21b8073fc3f0e2a160089adbb7c1cb1929cf27349214d91cd37145f4359560919050565b8163ffffffff1660100361046a57507f1c30725611326f7e7ba8a6631b6a1a695fa306cdff7899ab7bb8ca33cf03903b919050565b8163ffffffff1660110361049f57507f143eb6a2e7258d9caeb2106cfbb42601aae181d10a45440b79efea33740b9b8b919050565b8163ffffffff166012036104d457507f12a94855d8452529bf15797b895208c79705306bf4e46752ab82fc22b4eb3013919050565b8163ffffffff1660130361050957507f261149ed42d50ddedc2d2a6b129194b6b30bb008cf811a03a35b5af656c533a2919050565b8163ffffffff1660140361053e57507f18ba2a3d100f8d229bf493d4343c5f91328376d1213b83f1e1f60a19298f2753919050565b8163ffffffff1660150361057357507f2f3726e17ceee6f2619e3bfaf38e057c4a41a13f4055f8afceb2be9dd3482a72919050565b8163ffffffff166016036105a857507f2e62289432f7c87513dff45708663f17458cdbe6d38663d490edaf166de8718a919050565b8163ffffffff166017036105dd57507f024bbee17c36536426668e3d38cb241cd4a71293fb09a4791daa7a7f81257270919050565b8163ffffffff1660180361061257507f05129f540c9fe97a0fbb7f853c6bf631e0b2686dc5bc6cb655431a691c0d67f4919050565b8163ffffffff1660190361064757507f2cb45db6b3576ff05350489c6e66ec846c24a9c094a7517a1c662333f6e0c97d919050565b8163ffffffff16601a0361067c57507f045f46e8d91019ca1f8b4190a11bdbf0bfe713aeae3c6f57ecd61398af1bb0f3919050565b8163ffffffff16601b036106b157507f080fec49ae68b361c26ae04c04714e953133c488e30ce9d1cd556b5856755e0d919050565b8163ffffffff16601c036106e657507f188ee810bc82188b269fd839485603db1fb6da58eade0a6e0300ec0640dbc68b919050565b8163ffffffff16601d0361071b57507f2e3896219cbba83832caf3df6fe2e757311e0839667d0f8dca09c2c65d8b6c1a919050565b8163ffffffff16601e0361075057507f1dfa01f5f8e561862c6eb258cbcb80ab5824016ed37fd7c326bc80e63b31aefc919050565b8163ffffffff16601f0361078557507f0235eaffd7f108376658bad7b8c37ae3e9dd59215e0e8d98549ac63d6dab54de919050565b604051637252cdbd60e01b815260040160405180910390fd5b6001600160a01b03811681146107b2575f5ffd5b50565b5f5f5f606084860312156107c7575f5ffd5b835163ffffffff811681146107da575f5ffd5b60208501519093506107eb8161079e565b60408501519092506107fc8161079e565b809150509250925092565b60805160a05160c0516114ab61084d5f395f81816102e90152610ad501525f81816101910152610f2201525f81816101dc01528181610e200152610e8f01526114ab5ff3fe6080604052600436106100ac575f3560e01c80631b879f1d146100b057806357f65706146100ee57806359f41a811461011f57806365174af814610142578063705f032f1461018057806373d73202146101cb5780638b01429d146101fe5780639c8b91c1146102185780639dc166b714610243578063a7f5313114610271578063b130eaa614610290578063b214faa5146102b1578063cd87a3b4146102c4578063db9753a0146102d8575b5f5ffd5b3480156100bb575f5ffd5b506100db6100ca3660046110dc565b5f6020819052908152604090205481565b6040519081526020015b60405180910390f35b3480156100f9575f5ffd5b5060025461010a9063ffffffff1681565b60405163ffffffff90911681526020016100e5565b34801561012a575f5ffd5b5060025461010a90600160201b900463ffffffff1681565b34801561014d575f5ffd5b5061017061015c3660046110dc565b60056020525f908152604090205460ff1681565b60405190151581526020016100e5565b34801561018b575f5ffd5b506101b37f000000000000000000000000000000000000000000000000000000000000000081565b6040516001600160a01b0390911681526020016100e5565b3480156101d6575f5ffd5b5061010a7f000000000000000000000000000000000000000000000000000000000000000081565b348015610209575f5ffd5b506100db66038d7ea4c6800081565b348015610223575f5ffd5b506100db6102323660046110dc565b60016020525f908152604090205481565b34801561024e575f5ffd5b5061017061025d3660046110dc565b60046020525f908152604090205460ff1681565b34801561027c575f5ffd5b506100db61028b3660046110f3565b61030b565b34801561029b575f5ffd5b506102af6102aa36600461111d565b6109c9565b005b6102af6102bf3660046110dc565b610c67565b3480156102cf575f5ffd5b5061010a601e81565b3480156102e3575f5ffd5b506101b37f000000000000000000000000000000000000000000000000000000000000000081565b5f8163ffffffff165f0361034057507f1f9c815bb3f29ba2fc3f19b72e48938aed2707689809bde3eccc309ba32fe917919050565b8163ffffffff1660010361037557507f26826ad1a5d1795f583284d34418d3bac2b6b2515b16a2a432cf6aa3b6443ba9919050565b8163ffffffff166002036103aa57507f0ed66b54d8bfb40fdba0c49e7636f8850388fcf57e53635e8f4f6be09ca832bf919050565b8163ffffffff166003036103df57507f136ec4fdcd944b309c96af02b3354288305d45c3924a380b7d740456a310c007919050565b8163ffffffff1660040361041457507f05357e9c92cdcb2f8f3d6d0b559644dbdc71a64287bd05ced0ffaea1f288b0f8919050565b8163ffffffff1660050361044957507f0b05826301fec5aeaceacb22a23a4a98a425d1c06999b65178ddf31fdfca6f4f919050565b8163ffffffff1660060361047e57507f032e018fb302306660b0232159cd85aaedf00603f01cc9ad3eaaf999e1eb24b4919050565b8163ffffffff166007036104b357507f0a53ee2c5d3fd7df8e86812175d3edd683322886dcbc46c91aaf314f554e42f0919050565b8163ffffffff166008036104e857507f074307f10fc9aef3542720f00022e889a43df04f2d68b67fb617d5bd97c690bf919050565b8163ffffffff1660090361051d57507f15e905d2b53b0b5b1ea7036712ab3ae8de48a8777a89210e721ce7df6476b82d919050565b8163ffffffff16600a0361055257507f1faa8b22a213e896a362fe6792266534158a96e72df5c91a44d0a17edf426076919050565b8163ffffffff16600b0361058757507f21928b321d687fd22fc795f16320f2179fe0fe2618814cfec48503bb0876c2d3919050565b8163ffffffff16600c036105bc57507f082656ecc9dcee31e3af4592a883b742bad86cf9479d03665ed4cd9b00bbc2fc919050565b8163ffffffff16600d036105f157507f13107442c825ccf2e2a47d5ddbb774ef34ce723910b966811bc9a37e33606014919050565b8163ffffffff16600e0361062657507f1b9ed5a57b907fb0561a542285f3566fcc869e454095c21d347f792658258874919050565b8163ffffffff16600f0361065b57507f2b21b8073fc3f0e2a160089adbb7c1cb1929cf27349214d91cd37145f4359560919050565b8163ffffffff1660100361069057507f1c30725611326f7e7ba8a6631b6a1a695fa306cdff7899ab7bb8ca33cf03903b919050565b8163ffffffff166011036106c557507f143eb6a2e7258d9caeb2106cfbb42601aae181d10a45440b79efea33740b9b8b919050565b8163ffffffff166012036106fa57507f12a94855d8452529bf15797b895208c79705306bf4e46752ab82fc22b4eb3013919050565b8163ffffffff1660130361072f57507f261149ed42d50ddedc2d2a6b129194b6b30bb008cf811a03a35b5af656c533a2919050565b8163ffffffff1660140361076457507f18ba2a3d100f8d229bf493d4343c5f91328376d1213b83f1e1f60a19298f2753919050565b8163ffffffff1660150361079957507f2f3726e17ceee6f2619e3bfaf38e057c4a41a13f4055f8afceb2be9dd3482a72919050565b8163ffffffff166016036107ce57507f2e62289432f7c87513dff45708663f17458cdbe6d38663d490edaf166de8718a919050565b8163ffffffff1660170361080357507f024bbee17c36536426668e3d38cb241cd4a71293fb09a4791daa7a7f81257270919050565b8163ffffffff1660180361083857507f05129f540c9fe97a0fbb7f853c6bf631e0b2686dc5bc6cb655431a691c0d67f4919050565b8163ffffffff1660190361086d57507f2cb45db6b3576ff05350489c6e66ec846c24a9c094a7517a1c662333f6e0c97d919050565b8163ffffffff16601a036108a257507f045f46e8d91019ca1f8b4190a11bdbf0bfe713aeae3c6f57ecd61398af1bb0f3919050565b8163ffffffff16601b036108d757507f080fec49ae68b361c26ae04c04714e953133c488e30ce9d1cd556b5856755e0d919050565b8163ffffffff16601c0361090c57507f188ee810bc82188b269fd839485603db1fb6da58eade0a6e0300ec0640dbc68b919050565b8163ffffffff16601d0361094157507f2e3896219cbba83832caf3df6fe2e757311e0839667d0f8dca09c2c65d8b6c1a919050565b8163ffffffff16601e0361097657507f1dfa01f5f8e561862c6eb258cbcb80ab5824016ed37fd7c326bc80e63b31aefc919050565b8163ffffffff16601f036109ab57507f0235eaffd7f108376658bad7b8c37ae3e9dd59215e0e8d98549ac63d6dab54de919050565b604051637252cdbd60e01b815260040160405180910390fd5b919050565b6109d1610d57565b6109da83610d81565b6109ff57604051636009dbad60e01b8152600481018490526024015b60405180910390fd5b5f8281526005602052604090205460ff1615610a3157604051631412a12b60e31b8152600481018390526024016109f6565b604080516003808252608082019092525f916020820160608036833701905050905083815f81518110610a6657610a666111b8565b6020026020010181815250508281600181518110610a8657610a866111b8565b602002602001018181525050816001600160a01b03165f1b81600281518110610ab157610ab16111b8565b6020908102919091010152604051633a94343960e21b81525f906001600160a01b037f0000000000000000000000000000000000000000000000000000000000000000169063ea50d0e490610b0e908a908a9087906004016111cc565b602060405180830381865afa158015610b29573d5f5f3e3d5ffd5b505050506040513d601f19601f82011682018060405250810190610b4d9190611244565b905080610b6d5760405163aa7330c560e01b815260040160405180910390fd5b5f84815260056020526040808220805460ff19166001179055516001600160a01b0385169066038d7ea4c68000908381818185875af1925050503d805f8114610bd1576040519150601f19603f3d011682016040523d82523d5f602084013e610bd6565b606091505b5050905080610c1057604051630db9095160e41b81526001600160a01b038516600482015266038d7ea4c6800060248201526044016109f6565b836001600160a01b03167f356c9eac9ce0a5f23ba2bb915774323047b158b2ea2ad8c7d01a9cbc69b476f886604051610c4b91815260200190565b60405180910390a2505050610c606001600355565b5050505050565b610c6f610d57565b5f8181526004602052604090205460ff1615610ca15760405163248aad9360e01b8152600481018290526024016109f6565b66038d7ea4c680003414610cd757604051631873f34f60e01b815234600482015266038d7ea4c6800060248201526044016109f6565b5f610ce182610e05565b5f8381526004602052604090819020805460ff191660011790555190915082907f65daa3d05da731564989ef61bd07b241cda57a871c1f70feb7b9f17c2b41014090610d41908490429063ffffffff929092168252602082015260400190565b60405180910390a250610d546001600355565b50565b600260035403610d7a57604051633ee5aeb560e01b815260040160405180910390fd5b6002600355565b5f818103610d9057505f919050565b60025463ffffffff16805b63ffffffff81165f908152600160205260409020548403610dc0575060019392505050565b8063ffffffff165f03610ddc57610dd96001601e611277565b90505b80610de681611299565b9150508163ffffffff168163ffffffff1603610d9b57505f9392505050565b600280545f91600160201b90910463ffffffff1690610e45907f0000000000000000000000000000000000000000000000000000000000000000906113c9565b63ffffffff168163ffffffff1603610e785760405163b8a2ecf760e01b815263ffffffff821660048201526024016109f6565b600254600160201b900463ffffffff16835f80805b7f000000000000000000000000000000000000000000000000000000000000000063ffffffff168163ffffffff161015610fde57610ecc6002866113f4565b63ffffffff165f03610f0257839250610ee48161030b565b63ffffffff82165f9081526020819052604090208590559150610f1d565b63ffffffff81165f9081526020819052604090205492508391505b610fc77f00000000000000000000000000000000000000000000000000000000000000006001600160a01b031663055d8d54610f588661106c565b610f618661106c565b6040516001600160e01b031960e085901b16815260048101929092526024820152604401602060405180830381865afa158015610fa0573d5f5f3e3d5ffd5b505050506040513d601f19601f82011682018060405250810190610fc4919061141b565b90565b9350610fd4600286611432565b9450600101610e8d565b506002545f90601e90610ff89063ffffffff166001611459565b61100291906113f4565b6002805463ffffffff191663ffffffff83169081179091555f90815260016020819052604090912086905590915061103b908790611459565b6002805463ffffffff92909216600160201b0263ffffffff60201b1990921691909117905550939695505050505050565b806109c4817f30644e72e131a029b85045b68181585d2833e84879b9709143e1f593f00000018110610d545760405162461bcd60e51b81526020600482015260196024820152784669656c643a20696e70757420697320746f6f206c6172676560381b60448201526064016109f6565b5f602082840312156110ec575f5ffd5b5035919050565b5f60208284031215611103575f5ffd5b813563ffffffff81168114611116575f5ffd5b9392505050565b5f5f5f5f5f60808688031215611131575f5ffd5b85356001600160401b03811115611146575f5ffd5b8601601f81018813611156575f5ffd5b80356001600160401b0381111561116b575f5ffd5b88602082840101111561117c575f5ffd5b60209182019650945086013592506040860135915060608601356001600160a01b03811681146111aa575f5ffd5b809150509295509295909350565b634e487b7160e01b5f52603260045260245ffd5b60408152826040820152828460608301375f606084830101525f601f19601f85011682016060810160608483030160208501528085518083526080840191506020870193505f92505b808310156112385783518252602082019150602084019350600183019250611215565b50979650505050505050565b5f60208284031215611254575f5ffd5b81518015158114611116575f5ffd5b634e487b7160e01b5f52601160045260245ffd5b63ffffffff828116828216039081111561129357611293611263565b92915050565b5f63ffffffff8216806112ae576112ae611263565b5f190192915050565b6001815b60018411156112f2578085048111156112d6576112d6611263565b60018416156112e457908102905b60019390931c9280026112bb565b935093915050565b5f8261130857506001611293565b8161131457505f611293565b816001811461132a576002811461133457611365565b6001915050611293565b60ff84111561134557611345611263565b6001841b915063ffffffff82111561135f5761135f611263565b50611293565b5060208310610133831016604e8410600b841016171561139c575081810a63ffffffff81111561139757611397611263565b611293565b6113ab63ffffffff84846112b7565b8063ffffffff048211156113c1576113c1611263565b029392505050565b5f61111663ffffffff841663ffffffff84166112fa565b634e487b7160e01b5f52601260045260245ffd5b5f63ffffffff831680611409576114096113e0565b8063ffffffff84160691505092915050565b5f6020828403121561142b575f5ffd5b5051919050565b5f63ffffffff831680611447576114476113e0565b8063ffffffff84160491505092915050565b63ffffffff81811683821601908111156112935761129361126356fea2646970667358221220a1493cbc29beae53938dc7d79d1e654540de728cf1c0afb7b5147ff7a2a7498e64736f6c634300081d0033",
    "linkReferences": {}
  },
  "methodIdentifiers": {
    "DENOMINATION()": "8b01429d",
    "ROOT_HISTORY_SIZE()": "cd87a3b4",
    "deposit(bytes32)": "b214faa5",
    "i_depth()": "73d73202",
    "i_hasher()": "705f032f",
    "i_verifier()": "db9753a0",
    "s_cachedSubtree(uint256)": "1b879f1d",
    "s_commitments(bytes32)": "9dc166b7",
    "s_currentRootIndex()": "57f65706",
    "s_nextLeafIndex()": "59f41a81",
    "s_nullifierHashes(bytes32)": "65174af8",
    "s_roots(uint256)": "9c8b91c1",
    "withdraw(bytes,bytes32,bytes32,address)": "b130eaa6",
    "zeros(uint32)": "a7f53131"
  },
  "id": 21
}